:100000000C9464000C948C000C948C000C948C0068
:100010000C948C000C948C000C948C000C948C0030
:100020000C948C000C948C000C948C000C948C0020
:100030000C948C000C948C000C948C000C948C0010
:100040000C9417050C948C000C9437060C948506C0
:100050000C948C000C948C000C948C000C948C00F0
:100060000C948C000C948C000000000024002700ED
:100070002A0000000000250028002B0000000000DE
:1000800023002600290004040404040404040202DA
:100090000202020203030303030301020408102007
:1000A0004080010204081020010204081020000012
:1000B0000007000201000003040600000000000029
:1000C0000000CE00F107C70011241FBECFEFD8E01B
:1000D000DEBFCDBF11E0A0E0B1E0E2E4F8E102C094
:1000E00005900D92A839B107D9F712E0A8E9B1E05F
:1000F00001C01D92AD36B107E1F710E0C6ECD0E0CB
:1001000004C02297FE010E94100CC23CD107C9F71F
:100110000E9447080C94140C0C940000FB01DC01B5
:1001200002C001900D9241505040D8F70895FB0154
:10013000DC0101900D920020E1F70895CF92EF923B
:100140000F9381309105B1F46F5F7F4FE1F488E93F
:1001500091E067E046E025E004E053E0E52E32E080
:10016000C32E0E94DE048DEA91E060E071E00E94FF
:100170009D0909C0892B39F46F5F7F4F21F48DEA07
:1001800091E00E94D0090F91EF90CF90089580E008
:1001900090E06FEF7FEF0E949E00089581E090E075
:1001A0006FEF7FEF0E949E0008950F931F9301E071
:1001B0000EC086E492E00E947807182F8DEA91E045
:1001C000612F0E9457091D3011F40093B40186E499
:1001D00092E00E944707181619065CF31F910F91D1
:1001E00008958091B401882309F41AC28DEA91E040
:1001F00060E070E00E94DF08FC0180818A3009F431
:10020000FEC088E991E060E040E00E94F10388E9E7
:1002100091E061E071E00E94DC088DEA91E060E02D
:1002200070E00E94DF08FC0188E991E060810E9493
:1002300080088DEA91E061E070E00E94DF08FC0137
:1002400088E991E060810E94800886E492E067E09E
:1002500071E00E94DC088DEA91E060E070E00E94AD
:10026000DF08FC0186E492E060810E9480088DEA4C
:1002700091E061E070E00E94DF08FC0186E492E01A
:1002800060810E94800888E991E060E041E00E947E
:10029000F10388E991E06DE071E00E94DC088DEAED
:1002A00091E062E070E00E94DF08FC0188E991E0E3
:1002B00060810E9480088DEA91E063E070E00E9416
:1002C000DF08FC0188E991E060810E94800886E4F3
:1002D00092E064E171E00E94DC088DEA91E062E066
:1002E00070E00E94DF08FC0186E492E060810E94D9
:1002F00080088DEA91E063E070E00E94DF08FC0175
:1003000086E492E060810E9480088DEA91E064E0DA
:1003100070E00E94DF08FC018081813359F488E994
:1003200091E060E042E00E94F10388E991E06AE137
:1003300071E014C08DEA91E064E070E00E94DF0893
:10034000FC0180818233F1F488E991E060E042E0D1
:100350000E94F10388E991E061E371E00E94DC080A
:1003600086E492E06BE271E00E94DC088DEA91E0A5
:1003700064E070E00E94DF08FC0186E492E06081A6
:100380000E9480088DEA91E065E070E00E94DF083D
:10039000FC018081833359F488E991E060E043E017
:1003A0000E94F10388E991E066E471E014C08DEAEF
:1003B00091E065E070E00E94DF08FC0180818433F9
:1003C000F1F488E991E060E043E00E94F10388E9FC
:1003D00091E06DE571E00E94DC0886E492E067E55B
:1003E00071E00E94DC088DEA91E065E070E00E9417
:1003F000DF08FC0186E492E060810E94A8088DEA93
:1004000091E060E070E00E94DF08FC0180818A30AA
:1004100009F0FEC088E991E060E040E00E94F1034D
:1004200088E991E061E071E00E94DC088DEA91E0EA
:1004300061E070E00E94DF08FC0188E991E06081E2
:100440000E9480088DEA91E062E070E00E94DF087F
:10045000FC0188E991E060810E94800886E492E0D6
:1004600067E071E00E94DC088DEA91E061E070E0F5
:100470000E94DF08FC0186E492E060810E9480080F
:100480008DEA91E062E070E00E94DF08FC0186E402
:1004900092E060810E94800888E991E060E041E09C
:1004A0000E94F10388E991E06DE071E00E94DC08B0
:1004B0008DEA91E063E070E00E94DF08FC0188E9CA
:1004C00091E060810E9480088DEA91E064E070E034
:1004D0000E94DF08FC0188E991E060810E948008A9
:1004E00086E492E064E171E00E94DC088DEA91E02C
:1004F00063E070E00E94DF08FC0186E492E0608126
:100500000E9480088DEA91E064E070E00E94DF08BC
:10051000FC0186E492E060810E9480088DEA91E00F
:1005200065E070E00E94DF08FC018081813359F4AE
:1005300088E991E060E042E00E94F10388E991E0FF
:100540006AE171E014C08DEA91E065E070E00E941C
:10055000DF08FC0180818233F1F488E991E060E0FA
:1005600042E00E94F10388E991E061E371E00E94BA
:10057000DC0886E492E06BE271E00E94DC088DEA20
:1005800091E065E070E00E94DF08FC0186E492E003
:1005900060810E9480088DEA91E066E070E00E9430
:1005A000DF08FC018081833359F488E991E060E041
:1005B00043E00E94F10388E991E066E471E014C031
:1005C0008DEA91E066E070E00E94DF08FC01808126
:1005D0008433F1F488E991E060E043E00E94F103A4
:1005E00088E991E06DE571E00E94DC0886E492E024
:1005F00067E571E00E94DC088DEA91E066E070E05A
:100600000E94DF08FC0186E492E060810E94A80855
:100610008DEA91E060E071E00E94B7091092B401A8
:10062000089588E991E064E144E020E00E94280414
:1006300086E492E040E855E260E070E00E94C00687
:100640008DEA91E068EC70E00E940E0908950F9326
:100650001F938C01FC01868160E00E94E30581E02C
:1006600090E00E945F05F801868161E00E94E30549
:1006700081E090E00E945F05F801868160E00E94C1
:10068000E30584E690E00E945F051F910F910895B5
:10069000CF92DF92EF92FF920F931F93CF93DF934E
:1006A000D82EC92E282F392FC9018C01C0E0D0E0E7
:1006B000E62EFF24F801878161E00E94A405B701BE
:1006C0000C2E02C0759567950A94E2F76170F801E7
:1006D00087810E94E30521960F5F1F4FC830D10527
:1006E00049F78D2D9C2D0E942703DF91CF911F91FB
:1006F0000F91FF90EF90DF90CF900895CF92DF920F
:10070000EF92FF920F931F93CF93DF93D82EC92EB2
:10071000282F392FC9018C01C0E0D0E0E62EFF243C
:10072000F801878161E00E94A405B7010C2E02C088
:10073000759567950A94E2F76170F80187810E94C8
:10074000E30521960F5F1F4FC430D10549F78D2D6A
:100750009C2D0E942703DF91CF911F910F91FF9055
:10076000EF90DF90CF9008951F93CF93DF93EC012C
:10077000162F8C81642F0E94E3058D818F3F19F025
:1007800060E00E94E3058F8584FF05C0CE01612FE4
:100790000E9448030EC0612F70E084E07595679554
:1007A0008A95E1F7CE010E947E03CE01612F0E945F
:1007B0007E03DF91CF911F91089541E00E94B40321
:1007C00081E090E0089540E00E94B4030895FC01A8
:1007D0006089862F8460808B6C60CF010E94E30368
:1007E0000895DF93CF93CDB7DEB728970FB6F8946F
:1007F000DEBF0FBECDBF9C01FE013196A0E8B1E087
:1008000088E00D9001928150E1F7F9018389481742
:1008100010F0482F4150E42FF0E0EE0FFF1FEC0FD7
:10082000FD1F8181680F6068C9010E94E30328965B
:100830000FB6F894DEBF0FBECDBFCF91DF91089504
:1008400061E00E94E30380ED97E00E945F05089558
:10085000CF93DF93EC01423018F08F8588608F874B
:100860004B8B1C8A222329F0413019F48F85846038
:100870008F8780E593EC0E945F058C8160E00E9489
:10088000E3058E8160E00E94E3058D818F3F19F0C2
:1008900060E00E94E3056F8564FD1DC0CE0163E04A
:1008A0000E947E0384E991E10E945F05CE0163E02E
:1008B0000E947E0384E991E10E945F05CE0163E01E
:1008C0000E947E0386E990E00E945F05CE0162E00F
:1008D0000E947E0316C06062CE010E94E30384E999
:1008E00091E10E945F056F856062CE010E94E30383
:1008F00086E990E00E945F056F856062CE010E94EC
:10090000E3036F856062CE010E94E30384E0888B7D
:10091000CE010E94E703CE010E94200482E0898B71
:10092000CE0166E00E94E303DF91CF9108956F92BC
:100930007F928F92AF92CF92EF920F931F93DF939C
:10094000CF93CDB7DEB73C01162F842FF30144833C
:1009500025830683E782C086A18682869D8593874C
:100960009E8594879F8595879889968761E00E94E8
:10097000A405F30185818F3F19F061E00E94A40571
:10098000F301868161E00E94A405112319F0F301AF
:10099000178603C080E1F3018787C30160E141E06E
:1009A00020E00E942804CF91DF911F910F91EF90DA
:1009B000CF90AF908F907F906F9008958F92AF926D
:1009C000CF92EF920F931F93CF93DF93DC01362FDB
:1009D000542F722F102FAE2C8C2C13961C921E921B
:1009E00012978CE791E011969C938E9300D000D0E3
:1009F000EDB7FEB73196CDB7DEB7198211821282FC
:100A00001382CD0161E0432F2FEF052FE72EC12E7A
:100A10000E9497040F900F900F900F90DF91CF914D
:100A20001F910F91EF90CF90AF908F9008951F92EC
:100A30000F920FB60F9211242F933F938F939F9392
:100A4000AF93BF938091B9019091BA01A091BB017E
:100A5000B091BC013091BD010196A11DB11D232FA4
:100A60002D5F2D3720F02D570196A11DB11D20932C
:100A7000BD018093B9019093BA01A093BB01B093DB
:100A8000BC018091B5019091B601A091B701B091E0
:100A9000B8010196A11DB11D8093B5019093B601D7
:100AA000A093B701B093B801BF91AF919F918F917F
:100AB0003F912F910F900FBE0F901F9018950197A7
:100AC00039F0880F991F880F991F02970197F1F746
:100AD0000895789484B5826084BD84B5816084BDB6
:100AE00085B5826085BD85B5816085BDEEE6F0E0A7
:100AF000808181608083E1E8F0E010828081826003
:100B00008083808181608083E0E8F0E08081816083
:100B10008083E1EBF0E0808184608083E0EBF0E0B3
:100B2000808181608083EAE7F0E080818460808357
:100B30008081826080838081816080838081806801
:100B400080831092C1000895CF93DF93482F50E027
:100B5000CA0186569F4FFC0134914A575F4FFA01F4
:100B60008491882369F190E0880F991FFC01E8596E
:100B7000FF4FA591B491FC01EE58FF4FC591D49160
:100B8000662351F42FB7F8948C91932F9095892375
:100B90008C93888189230BC0623061F42FB7F8945D
:100BA0008C91932F909589238C938881832B8883B4
:100BB0002FBF06C09FB7F8948C91832B8C939FBF57
:100BC000DF91CF910895482F50E0CA0182559F4F81
:100BD000FC012491CA0186569F4FFC0194914A570B
:100BE0005F4FFA013491332309F440C0222351F1BD
:100BF000233071F0243028F42130A1F0223011F597
:100C000014C02630B1F02730C1F02430D9F404C02C
:100C1000809180008F7703C0809180008F7D8093CA
:100C2000800010C084B58F7702C084B58F7D84BDED
:100C300009C08091B0008F7703C08091B0008F7D94
:100C40008093B000E32FF0E0EE0FFF1FEE58FF4F50
:100C5000A591B4912FB7F894662321F48C919095C7
:100C6000892302C08C91892B8C932FBF08951F92EA
:100C70000F920FB60F9211242F933F934F938F93A0
:100C80009F93EF93FF938091C00082FD1DC0409120
:100C9000C6002091FE013091FF012F5F3F4F2F735F
:100CA000307080910002909101022817390771F08D
:100CB000E091FE01F091FF01E254FE4F408330933A
:100CC000FF012093FE0102C08091C600FF91EF91C9
:100CD0009F918F914F913F912F910F900FBE0F9049
:100CE0001F901895E0915202F0915302E05CFF4F83
:100CF0008191919120813181821B930B8F73907030
:100D0000892B11F00E94D50008951F920F920FB603
:100D10000F9211242F933F938F939F93EF93FF9301
:100D20002091420230914302809144029091450209
:100D30002817390731F48091C1008F7D8093C1005D
:100D400014C0E0914402F0914502EE5FFD4F208116
:100D5000809144029091450201968F739070909318
:100D60004502809344022093C600FF91EF919F912A
:100D70008F913F912F910F900FBE0F901F9018955C
:100D8000AF92BF92DF92EF92FF920F931F93CF9398
:100D9000DF93EC017A018B01DD24403081EE5807AE
:100DA00080E0680780E0780711F0DD24D39491E0BB
:100DB000A92EB12CEC89FD89DD2069F0C50108A0C0
:100DC00002C0880F991F0A94E2F7808360E079E0FF
:100DD0008DE390E005C0108260E874E88EE190E059
:100DE000A80197010E94EC0B215030404040504038
:100DF000569547953795279580E12030380720F0A4
:100E0000DD2011F0DD24D6CFE889F9893083EA8925
:100E1000FB89208319A2EE89FF89408121E030E01F
:100E2000C9010C8C02C0880F991F0A94E2F7482B65
:100E30004083EE89FF894081C9010D8C02C0880F73
:100E4000991F0A94E2F7482B4083EE89FF8940817D
:100E5000C9010E8C02C0880F991F0A94E2F7482B33
:100E60004083EE89FF8980810F8C02C0220F331FDF
:100E70000A94E2F7209528232083DF91CF911F91D8
:100E80000F91FF90EF90DF90BF90AF900895DC013D
:100E90001C96ED91FC911D97E05CFF4F21913191E3
:100EA00080819181281B390B2F733070C9010895FF
:100EB000DC011C96ED91FC911D97E05CFF4F2081B9
:100EC0003181E054F040DF01AE5BBF4F8D919C91CA
:100ED00011972817390719F42FEF3FEF07C08D91AD
:100EE0009C91E80FF91F8081282F30E0C9010895F7
:100EF000DC011C96ED91FC911D97E05CFF4F208179
:100F00003181E054F040DF01AE5BBF4F8D919C9189
:100F100011972817390719F42FEF3FEF10C08D9163
:100F20009C911197E80FF91F20818D919C91119749
:100F300001968F73907011969C938E9330E0C90147
:100F40000895DC0191968C919197882339F05496FD
:100F5000ED91FC915597808186FFF9CF91961C9277
:100F60000895CF93DF93EC01EE85FF85E05CFF4FA2
:100F700020813181E054F0402F5F3F4F2F7330705C
:100F8000DF01AE5BBF4F8D919C91119728173907F8
:100F9000D1F3E05CFF4F80819181E054F040E80F95
:100FA000F91F6083EE85FF85E05CFF4F318320836E
:100FB000EE89FF89208181E090E00F8C02C0880FCC
:100FC000991F0A94E2F7282B208381E089A3EC89FA
:100FD000FD8980818064808381E090E0DF91CF9102
:100FE0000895109249021092480288EE93E0A0E022
:100FF000B0E080934A0290934B02A0934C02B093CE
:101000004D028CE891E090934702809346028EEB6C
:1010100091E0909353028093520282E092E0909389
:1010200055028093540285EC90E090935702809390
:10103000560284EC90E0909359028093580280EC21
:1010400090E090935B0280935A0281EC90E0909341
:101050005D0280935C0282EC90E090935F0280934B
:101060005E0286EC90E0909361028093600284E0DF
:101070008093620283E08093630287E0809364023E
:1010800085E08093650281E0809366020895CF93A6
:10109000DF930E9469050E941103C2E7D6E00E9417
:1010A000F1002097E1F30E947206F9CFCF92DF9210
:1010B000EF92FF920F931F93CF93DF937C016B010D
:1010C0008A01C0E0D0E00FC0D6016D916D01D7015B
:1010D000ED91FC910190F081E02DC7010995C80FB9
:1010E000D91F015010400115110571F7CE01DF9194
:1010F000CF911F910F91FF90EF90DF90CF900895C7
:10110000DC01ED91FC910190F081E02D09950895AD
:10111000EF92FF920F931F938C01DC01ED91FC91F4
:101120000190F081E02D6DE009957C01D801ED91F1
:10113000FC910190F081E02DC8016AE009959C01C5
:101140002E0D3F1DC9011F910F91FF90EF90089543
:10115000EF92FF920F931F937C01DC01ED91FC91C4
:101160000190F081E02D09958C01C7010E9488084B
:10117000080F191FC8011F910F91FF90EF9008955C
:10118000CF93DF93EC016115710519F420E030E095
:101190000FC0DB010D900020E9F71197A61BB70BDC
:1011A000E881F9810280F381E02DAD0109959C0170
:1011B000C901DF91CF9108950E94C0080895FC01F4
:1011C0009B01848195816817790728F4608171817A
:1011D0006115710529F41092680268E672E002C098
:1011E000620F731FCB0108950F931F93CF93DF936B
:1011F000EC018B016F5F7F4F888199810E940B0BFF
:10120000009711F480E005C0998388831B830A83CB
:1012100081E0DF91CF911F910F910895CF93DF93DC
:10122000EC0188819981892B29F08A819B8186171D
:10123000970760F4CE010E94F408882341F08C8166
:101240009D81892B19F4E881F981108281E0DF9179
:10125000CF910895EF92FF920F931F93CF93DF9357
:10126000EC017B016C817D81E114F104C1F0411539
:10127000510599F08A01060F171FB8010E940E0947
:10128000882369F0888199812C813D81820F931F89
:10129000B7010E9497001D830C8381E001C080E0AC
:1012A000DF91CF911F910F91FF90EF900895DF9301
:1012B000CF9300D0CDB7DEB769831A82BE016F5FCE
:1012C0007F4F41E050E00E942A090F900F90CF918C
:1012D000DF910895CF93DF93EC0188819981009786
:1012E00011F00E94730A198218821D821C821B82CF
:1012F0001A82DF91CF910895EF92FF920F931F937F
:10130000CF93DF93EC017B018A01BA010E940E09A1
:10131000882321F4CE010E946A0907C01D830C8333
:1013200088819981B7010E949700CE01DF91CF910A
:101330001F910F91FF90EF900895CF93DF93EC01F1
:10134000198218821B821A821D821C821E826115DC
:10135000710551F0DB010D900020E9F71197A61BF4
:10136000B70BAD010E947C09DF91CF9108950F93D7
:101370001F93182F092F6115710559F0DB010D908E
:101380000020E9F71197A61BB70BAD010E947C095D
:1013900002C00E946A09812F902F1F910F9108951A
:1013A000FC01808191810E94730A08950F931F931D
:1013B000CF93DF93BC018230910510F462E070E0BE
:1013C000E0916B02F0916C0240E050E0A0E0B0E0F0
:1013D00024C08081918186179707D0F086179707E0
:1013E00071F482819381109729F013969C938E93C8
:1013F00012972CC090936C0280936B0227C041150A
:10140000510519F08417950718F48D01AC01EF010F
:10141000DF01828193819C01F9013097D1F641155A
:101420005105F9F0CA01861B970B8430910580F4B1
:101430008A819B810115110521F0F8019383828334
:1014400004C090936C0280936B02FE01329645C0FB
:10145000FE01E80FF91F61937193029799838883C6
:101460003CC08091690290916A02892B41F480917D
:1014700074019091750190936A0280936902409182
:101480007601509177014115510541F44DB75EB792
:101490008091720190917301481B590B2091690250
:1014A00030916A0224173507B0F4CA01821B930BEE
:1014B0008617970780F0AB014E5F5F4F8417950743
:1014C00050F0420F531F50936A0240936902F90192
:1014D0006193719302C0E0E0F0E0CF01DF91CF9122
:1014E0001F910F910895CF93DF939C01009709F40A
:1014F0008FC0EC0122971B821A8260916B0270915F
:101500006C026115710581F488819981820F931FA6
:101510002091690230916A022817390739F5D09372
:101520006A02C093690274C0DB0140E050E0AC176E
:10153000BD0708F1BB83AA83FE0121913191E20F1F
:10154000F31FAE17BF0779F48D919C911197280F67
:10155000391F2E5F3F4F3983288312968D919C91BE
:1015600013979B838A834115510571F4D0936C02C4
:10157000C0936B024DC012968D919C911397AD0153
:10158000009711F0DC01D3CFDA011396DC93CE93F0
:101590001297FA0121913191E20FF31FCE17DF0765
:1015A00069F488819981280F391F2E5F3F4FFA0116
:1015B000318320838A819B8193838283E0E0F0E002
:1015C000DB0112968D919C911397009719F0BC0145
:1015D000FD01F6CFAB014E5F5F4FDB018D919C911A
:1015E000840F951F2091690230916A0228173907EC
:1015F00079F4309729F410926C0210926B0202C0B9
:10160000138212824250504050936A024093690202
:10161000DF91CF9108956F927F928F929F92AF92B8
:10162000BF92CF92DF92EF92FF920F931F93CF93CF
:10163000DF938C01009729F4CB010E94D6098C011D
:10164000BBC08EEFE82E8FEFF82EE00EF11E4801A2
:10165000860E971E8E149F0408F4ACC0D7014D91DE
:101660005C91119746175707B8F04530510508F4BB
:10167000A3C0CA0104978617970708F49DC042507B
:101680005040461B570BF401419351936D937C934B
:10169000CF010E94730A90C05B01A41AB50A3801F9
:1016A000640E751EA0916B02B0916C02E0E0F0E058
:1016B000CC24DD2447C0A615B705A9F5CD91DC9152
:1016C0001197CE0102968A159B0568F1CE018A1901
:1016D0009B09029612962C91129713963C910597AE
:1016E00058F0F40122833383CA19DB09D183C08304
:1016F000D7016D937C9309C04E5F5F4F4C0F5D1F08
:10170000F70151834083C901FC01C114D10431F0B8
:10171000D6011396FC93EE9312974EC0F0936C0291
:10172000E0936B0249C08D919C911197E817F907DE
:1017300008F4FC016D0112968C91129713969C91FE
:101740009C01D901109709F0B6CF80916902909160
:101750006A0286159705E9F4E617F707D0F4209199
:101760007601309177012115310541F42DB73EB74F
:101770008091720190917301281B390B8216930698
:10178000C8F490926A0280926902F70171836083C3
:1017900013C0CB010E94D609EC01009759F0D70184
:1017A0004D915C91B8010E948E00C8010E94730A9D
:1017B0008E0102C000E010E0C801DF91CF911F91BF
:1017C0000F91FF90EF90DF90CF90BF90AF909F90E0
:1017D0008F907F906F900895A1E21A2EAA1BBB1BD9
:1017E000FD010DC0AA1FBB1FEE1FFF1FA217B307ED
:1017F000E407F50720F0A21BB30BE40BF50B661F03
:10180000771F881F991F1A9469F7609570958095C6
:1018100090959B01AC01BD01CF010895EE0FFF1F14
:101820000590F491E02D099410E0C6ECD0E004C0DE
:10183000FE010E94100C2296C83CD107C9F7F8940B
:02184000FFCFD8
:101842000054454D503A00465352313A0054454DEA
:1018520050313A00465352323A00427574746F6EF8
:101862002031207072657373656400465352333AB7
:1018720000427574746F6E2031206E6F7420707226
:10188200657373656400427574746F6E20322070E4
:1018920072657373656400465352343A004275743C
:1018A200746F6E2032206E6F742070726573736570
:1018B200640080006D02000000000000DD03560895
:1018C200000040001400540000000000B107560858
:0818D200470778075807A1073A
:00000001FF
