:100000000C9463000C948B000C948B000C948B006C
:100010000C948B000C948B000C948B000C948B0034
:100020000C948B000C948B000C948B000C948B0024
:100030000C948B000C948B000C948B000C948B0014
:100040000C947F030C948B000C946E050C94BC05EF
:100050000C948B000C948B000C948B000C948B00F4
:100060000C948B000C948B000000000024002700EF
:100070002A0000000000250028002B0000000000DE
:1000800023002600290004040404040404040202DA
:100090000202020203030303030301020408102007
:1000A0004080010204081020010204081020000012
:1000B0000007000201000003040600000000000029
:1000C00000008D00280711241FBECFEFD8E0DEBF4F
:1000D000CDBF11E0A0E0B1E0E8E7F2E102C0059099
:1000E0000D92AC39B107D9F712E0ACE9B1E001C02B
:1000F0001D92A436B107E1F710E0C6ECD0E004C0D1
:100100002297FE010E943609C23CD107C9F70E941E
:100110007E070C943A090C940000CF92EF920F9353
:100120008CE991E067E046E025E004E053E0E52E4D
:1001300032E0C32E0E9446030F91EF90CF900895B6
:10014000EF92FF920F931F938EE00E9465048C0143
:100150008FE00E9465049C01C80162E070E00E948B
:10016000EB08162F072FC90162E070E00E94EB0830
:10017000F62EE72E8CE991E060E040E00E94590203
:100180008CE991E060E071E00E94C9088CE991E09F
:10019000612F702F4AE050E00E9497088CE991E0AF
:1001A00060E041E00E9459028CE991E067E071E073
:1001B0000E94C9088CE991E06F2D7E2D4AE050E045
:1001C0000E94970882E492E0612F702F4AE050E08D
:1001D0000E94970882E492E06F2D7E2D4AE050E065
:1001E0000E949708809177010E941A05892B89F453
:1001F0008CE991E060E042E00E9459028CE991E0D4
:100200006EE071E00E94C90882E492E061E070E073
:1002100010C08CE991E060E042E00E9459028CE954
:1002200091E06FE171E00E94C90882E492E062E02F
:1002300070E04AE050E00E949708809179010E94A6
:100240001A05892B89F48CE991E060E043E00E9473
:1002500059028CE991E064E371E00E94C90882E4EC
:1002600092E063E070E010C08CE991E060E043E070
:100270000E9459028CE991E065E471E00E94C9088E
:1002800082E492E064E070E04AE050E00E94AA0854
:1002900068EC70E080E090E00E94C7031F910F912E
:1002A000FF90EF9008950F931F938091770162E084
:1002B0000E9487048091790162E00E94870482E4B1
:1002C00092E040E855E260E070E00E94F7050CE93A
:1002D00011E0C80164E144E020E00E949002C801FE
:1002E00060E040E00E945902C8016AE571E00E94A6
:1002F000C908C80160E041E00E945902C8016AE6ED
:1003000071E00E94C90868EC70E080E090E00E9413
:10031000C703C8010E9488021F910F9108950F938F
:100320001F938C01FC01868160E00E94C60481E07D
:1003300090E00E942004F801868161E00E94C604DA
:1003400081E090E00E942004F801868160E00E9434
:10035000C60484E690E00E9420041F910F91089546
:10036000CF92DF92EF92FF920F931F93CF93DF9381
:10037000D82EC92E282F392FC9018C01C0E0D0E01A
:10038000E62EFF24F801878161E00E948704B7010F
:100390000C2E02C0759567950A94E2F76170F8011A
:1003A00087810E94C60421960F5F1F4FC830D10578
:1003B00049F78D2D9C2D0E948F01DF91CF911F91C8
:1003C0000F91FF90EF90DF90CF900895CF92DF9242
:1003D000EF92FF920F931F93CF93DF93D82EC92EE6
:1003E000282F392FC9018C01C0E0D0E0E62EFF2470
:1003F000F801878161E00E948704B7010C2E02C0DA
:10040000759567950A94E2F76170F80187810E94FB
:10041000C60421960F5F1F4FC430D10549F78D2DBB
:100420009C2D0E948F01DF91CF911F910F91FF9022
:10043000EF90DF90CF9008951F93CF93DF93EC015F
:10044000162F8C81642F0E94C6048D818F3F19F076
:1004500060E00E94C6048F8584FF05C0CE01612F35
:100460000E94B0010EC0612F70E084E07595679521
:100470008A95E1F7CE010E94E601CE01612F0E942C
:10048000E601DF91CF911F91089541E00E941C0287
:1004900081E090E0089540E00E941C020895FC0174
:1004A0006089862F8460808B6C60CF010E944B0234
:1004B0000895DF93CF93CDB7DEB728970FB6F894A2
:1004C000DEBF0FBECDBF9C01FE013196A4E8B1E0B6
:1004D00088E00D9001928150E1F7F9018389481776
:1004E00010F0482F4150E42FF0E0EE0FFF1FEC0F0B
:1004F000FD1F8181680F6068C9010E944B02289628
:100500000FB6F894DEBF0FBECDBFCF91DF91089537
:1005100061E00E944B0280ED97E00E942004089564
:10052000CF93DF93EC01423018F08F8588608F877E
:100530004B8B1C8A222329F0413019F48F8584606B
:100540008F8780E593EC0E9420048C8160E00E94FC
:10055000C6048E8160E00E94C6048D818F3F19F031
:1005600060E00E94C6046F8564FD1DC0CE0163E09B
:100570000E94E60184E991E10E942004CE0163E03B
:100580000E94E60184E991E10E942004CE0163E02B
:100590000E94E60186E990E00E942004CE0162E01C
:1005A0000E94E60116C06062CE010E944B0284E9FF
:1005B00091E10E9420046F856062CE010E944B028F
:1005C00086E990E00E9420046F856062CE010E945F
:1005D0004B026F856062CE010E944B0284E0888BE3
:1005E000CE010E944F02CE010E94880282E0898BD8
:1005F000CE0166E00E944B02DF91CF9108956F9289
:100600007F928F92AF92CF92EF920F931F93DF93CF
:10061000CF93CDB7DEB73C01162F842FF30144836F
:1006200025830683E782C086A18682869D8593877F
:100630009E8594879F8595879889968761E00E941B
:100640008704F30185818F3F19F061E00E948704E0
:10065000F301868161E00E948704112319F0F30100
:10066000178603C080E1F3018787C30160E141E0A1
:1006700020E00E949002CF91DF911F910F91EF90A7
:10068000CF90AF908F907F906F9008958F92AF92A0
:10069000CF92EF920F931F93CF93DF93DC01362F0E
:1006A000542F722F102FAE2C8C2C13961C921E924E
:1006B000129780E891E011969C938E9300D000D021
:1006C000EDB7FEB73196CDB7DEB71982118212822F
:1006D0001382CD0161E0432F2FEF052FE72EC12EAE
:1006E0000E94FF020F900F900F900F90DF91CF911B
:1006F0001F910F91EF90CF90AF908F9008951F9220
:100700000F920FB60F9211242F933F938F939F93C5
:10071000AF93BF938091B5019091B601A091B701BD
:10072000B091B8013091B9010196A11DB11D232FDF
:100730002D5F2D3720F02D570196A11DB11D20935F
:10074000B9018093B5019093B601A093B701B0931E
:10075000B8018091B1019091B201A091B301B09123
:10076000B4010196A11DB11D8093B1019093B20116
:10077000A093B301B093B401BF91AF919F918F91BA
:100780003F912F910F900FBE0F901F9018959B01D6
:10079000AC017FB7F8948091B1019091B201A09122
:1007A000B301B091B40166B5A89B05C06F3F19F0C5
:1007B0000196A11DB11D7FBFBA2FA92F982F8827A1
:1007C000860F911DA11DB11D62E0880F991FAA1F00
:1007D000BB1F6A95D1F7BC012DC0FFB7F89480917B
:1007E000B1019091B201A091B301B091B401E6B50D
:1007F000A89B05C0EF3F19F00196A11DB11DFFBFD9
:10080000BA2FA92F982F88278E0F911DA11DB11DDA
:10081000E2E0880F991FAA1FBB1FEA95D1F7861B3C
:10082000970B885E9340C8F22150304040405040C2
:1008300068517C4F211531054105510571F6089528
:10084000019739F0880F991F880F991F0297019718
:10085000F1F70895789484B5826084BD84B5816091
:1008600084BD85B5826085BD85B5816085BDEEE6B8
:10087000F0E0808181608083E1E8F0E01082808197
:1008800082608083808181608083E0E8F0E0808105
:1008900081608083E1EBF0E0808184608083E0EB25
:1008A000F0E0808181608083EAE7F0E0808184600D
:1008B0008083808182608083808181608083808169
:1008C000806880831092C1000895982F8E3008F0C0
:1008D0009E50977080917B018295880F880F807C55
:1008E000892B80937C0080917A00806480937A00C9
:1008F00080917A0086FDFCCF2091780040917900AC
:10090000942F80E030E0282B392BC9010895CF9334
:10091000DF93482F50E0CA0186569F4FFC01349167
:100920004A575F4FFA018491882369F190E0880F5C
:10093000991FFC01E859FF4FA591B491FC01EE58B5
:10094000FF4FC591D491662351F42FB7F8948C9141
:10095000932F909589238C93888189230BC06230D3
:1009600061F42FB7F8948C91932F909589238C93F1
:100970008881832B88832FBF06C09FB7F8948C9102
:10098000832B8C939FBFDF91CF910895482F50E028
:10099000CA0182559F4FFC012491CA0186569F4F80
:1009A000FC0194914A575F4FFA013491332309F4C3
:1009B00040C0222351F1233071F0243028F421303B
:1009C000A1F0223011F514C02630B1F02730C1F06B
:1009D0002430D9F404C0809180008F7703C08091C7
:1009E00080008F7D8093800010C084B58F7702C017
:1009F00084B58F7D84BD09C08091B0008F7703C01E
:100A00008091B0008F7D8093B000E32FF0E0EE0F77
:100A1000FF1FEE58FF4FA591B4912FB7F8946623AE
:100A200021F48C919095892302C08C91892B8C9311
:100A30002FBF0895682F70E0CB0182559F4FFC01B6
:100A40002491CB0186569F4FFC0144916A577F4FFA
:100A5000FB019491992319F420E030E03CC022235B
:100A600051F1233071F0243028F42130A1F02230EC
:100A700011F514C02630B1F02730C1F02430D9F47C
:100A800004C0809180008F7703C0809180008F7DAB
:100A90008093800010C084B58F7702C084B58F7DAD
:100AA00084BD09C08091B0008F7703C08091B000F1
:100AB0008F7D8093B000892F90E0880F991F845814
:100AC0009F4FFC01A591B4918C9120E030E08423EC
:100AD00011F021E030E0C901089508951F920F92AE
:100AE0000FB60F9211242F933F934F938F939F93A1
:100AF000EF93FF938091C00082FD1DC04091C6001E
:100B00002091FA013091FB012F5F3F4F2F7330701E
:100B10008091FC019091FD012817390771F0E09157
:100B2000FA01F091FB01E654FE4F40833093FB0144
:100B30002093FA0102C08091C600FF91EF919F912E
:100B40008F914F913F912F910F900FBE0F901F905B
:100B50001895E0914E02F0914F02E05CFF4F8191B9
:100B6000919120813181821B930B8F739070892B1F
:100B700011F00E946D0508951F920F920FB60F920B
:100B800011242F933F938F939F93EF93FF93209183
:100B90003E0230913F02809140029091410228171D
:100BA000390731F48091C1008F7D8093C10014C05A
:100BB000E0914002F0914102E250FE4F208180918D
:100BC00040029091410201968F7390709093410280
:100BD000809340022093C600FF91EF919F918F91E7
:100BE0003F912F910F900FBE0F901F901895AF92CD
:100BF000BF92DF92EF92FF920F931F93CF93DF93F9
:100C0000EC017A018B01DD24403081EE580780E051
:100C1000680780E0780711F0DD24D39491E0A92ED5
:100C2000B12CEC89FD89DD2069F0C50108A002C066
:100C3000880F991F0A94E2F7808360E079E08DE3E2
:100C400090E005C0108260E874E88EE190E0A801B1
:100C500097010E94FE082150304040405040569578
:100C600047953795279580E12030380720F0DD2023
:100C700011F0DD24D6CFE889F9893083EA89FB8930
:100C8000208319A2EE89FF89408121E030E0C9016B
:100C90000C8C02C0880F991F0A94E2F7482B4083FE
:100CA000EE89FF894081C9010D8C02C0880F991F10
:100CB0000A94E2F7482B4083EE89FF894081C901FD
:100CC0000E8C02C0880F991F0A94E2F7482B4083CC
:100CD000EE89FF8980810F8C02C0220F331F0A9496
:100CE000E2F7209528232083DF91CF911F910F9168
:100CF000FF90EF90DF90BF90AF900895DC011C96BD
:100D0000ED91FC911D97E05CFF4F21913191808125
:100D10009181281B390B2F733070C9010895DC01B4
:100D20001C96ED91FC911D97E05CFF4F2081318175
:100D3000E054F040DF01AE5BBF4F8D919C91119765
:100D40002817390719F42FEF3FEF07C08D919C91B9
:100D5000E80FF91F8081282F30E0C9010895DC01D8
:100D60001C96ED91FC911D97E05CFF4F2081318135
:100D7000E054F040DF01AE5BBF4F8D919C91119725
:100D80002817390719F42FEF3FEF10C08D919C9170
:100D90001197E80FF91F20818D919C911197019671
:100DA0008F73907011969C938E9330E0C9010895D3
:100DB000DC0191968C919197882339F05496ED91AE
:100DC000FC915597808186FFF9CF91961C920895EA
:100DD000CF93DF93EC01EE85FF85E05CFF4F208130
:100DE0003181E054F0402F5F3F4F2F733070DF01AF
:100DF000AE5BBF4F8D919C91119728173907D1F3A6
:100E0000E05CFF4F80819181E054F040E80FF91FD2
:100E10006083EE85FF85E05CFF4F31832083EE89A0
:100E2000FF89208181E090E00F8C02C0880F991F1C
:100E30000A94E2F7282B208381E089A3EC89FD89BD
:100E400080818064808381E090E0DF91CF9108957C
:100E5000109245021092440288EE93E0A0E0B0E0C8
:100E60008093460290934702A0934802B0934902B0
:100E700080E991E090934302809342028AEB91E0F3
:100E800090934F0280934E028EEF91E09093510227
:100E90008093500285EC90E090935302809352022D
:100EA00084EC90E0909355028093540280EC90E0A3
:100EB000909357028093560281EC90E090935902F0
:100EC0008093580282EC90E090935B0280935A02E8
:100ED00086EC90E090935D0280935C0284E08093C6
:100EE0005E0283E080935F0287E08093600285E08A
:100EF0008093610281E0809362020895CF93DF9333
:100F00000E942A040E945301C9EAD5E00E94A00071
:100F10002097E1F30E94A905F9CFCF92DF92EF92DB
:100F2000FF920F931F93CF93DF937C016B018A0194
:100F3000C0E0D0E00FC0D6016D916D01D701ED91F9
:100F4000FC910190F081E02DC7010995C80FD91FD0
:100F5000015010400115110571F7CE01DF91CF91BD
:100F60001F910F91FF90EF90DF90CF900895EF9237
:100F7000FF920F931F938C01DC01ED91FC91019086
:100F8000F081E02D6DE009957C01D801ED91FC9197
:100F90000190F081E02DC8016AE009959C012E0DB9
:100FA0003F1DC9011F910F91FF90EF900895CF93BE
:100FB000DF93EC016115710519F420E030E00FC0FA
:100FC000DB010D900020E9F71197A61BB70BE88114
:100FD000F9810280F381E02DAD0109959C01C901E1
:100FE000DF91CF9108954F925F927F928F929F925F
:100FF000AF92BF92CF92DF92EF92FF920F931F9327
:10100000DF93CF93CDB7DEB7A1970FB6F894DEBFCD
:101010000FBECDBF2C01742ECB01223008F42AE084
:1010200019A231E2C32ED12CCC0EDD1E822E9924C2
:10103000AA24BB24672D752FA50194010E94FE08E8
:1010400079018A01C801B701A50194010E94CC0869
:10105000472D461B0894C108D1084A3014F4405D5E
:1010600001C0495CF6014083E114F104010511055A
:1010700021F07E2C5F2DC801DDCFC201B6010E9498
:10108000D707A1960FB6F894DEBF0FBECDBFCF91A4
:10109000DF911F910F91FF90EF90DF90CF90BF9065
:1010A000AF909F908F907F905F904F900895CF92D8
:1010B000DF92EF92FF920F931F93CF93DF93EC0198
:1010C0006A017B012115310541F4E881F981019024
:1010D000F081E02D642F09951FC02A303105D1F42D
:1010E00077FF17C0E881F9810190F081E02D6DE272
:1010F00009958C0144275527BA014C195D096E09E1
:101100007F09CE012AE00E94F3079801280F391FBA
:1011100004C02AE00E94F3079C01C901DF91CF912E
:101120001F910F91FF90EF90DF90CF900895EF9275
:10113000FF920F931F937B019A010027F7FC009504
:10114000102FB801A7010E9457081F910F91FF901F
:10115000EF900895CF92DF92EF92FF920F931F933B
:101160006C017B019A010027F7FC0095102FB80154
:10117000A7010E9457088C01C6010E94B707080FFB
:10118000191FC8011F910F91FF90EF90DF90CF9032
:1011900008950E94D7070895629FD001739FF001C0
:1011A000829FE00DF11D649FE00DF11D929FF00DF7
:1011B000839FF00D749FF00D659FF00D9927729F2E
:1011C000B00DE11DF91F639FB00DE11DF91FBD01B9
:1011D000CF011124089597FB092E07260AD077FD29
:1011E00004D02ED006D000201AF4709561957F4F60
:1011F0000895F6F7909581959F4F0895A1E21A2ED4
:10120000AA1BBB1BFD010DC0AA1FBB1FEE1FFF1FAA
:10121000A217B307E407F50720F0A21BB30BE40BFA
:10122000F50B661F771F881F991F1A9469F7609541
:101230007095809590959B01AC01BD01CF010895FB
:10124000AA1BBB1B51E107C0AA1FBB1FA617B707EC
:1012500010F0A61BB70B881F991F5A95A9F7809508
:101260009095BC01CD010895EE0FFF1F0590F491FC
:08127000E02D0994F894FFCF72
:1012780054454D50313A0054454D50323A0042756C
:1012880074746F6E203120707265737365640042E8
:101298007574746F6E2031206E6F74207072657370
:1012A80073656400427574746F6E203220707265C5
:1012B8007373656400427574746F6E2032206E6FAC
:1012C8007420707265737365640057656C636F6D25
:1012D8006520746F2044617461005472616E736D8F
:1012E800697373696F6E000800090001000000004F
:1012F80045028D0700004000140054000000000063
:0C130800E8068D077E06AF068F06D806AB
:00000001FF
